{
  "contractName": "NftMinter",
  "abi": [
    {
      "inputs": [],
      "stateMutability": "nonpayable",
      "type": "constructor"
    },
    {
      "anonymous": false,
      "inputs": [
        {
          "indexed": true,
          "internalType": "address",
          "name": "owner",
          "type": "address"
        },
        {
          "indexed": true,
          "internalType": "address",
          "name": "approved",
          "type": "address"
        },
        {
          "indexed": true,
          "internalType": "uint256",
          "name": "tokenId",
          "type": "uint256"
        }
      ],
      "name": "Approval",
      "type": "event"
    },
    {
      "anonymous": false,
      "inputs": [
        {
          "indexed": true,
          "internalType": "address",
          "name": "owner",
          "type": "address"
        },
        {
          "indexed": true,
          "internalType": "address",
          "name": "operator",
          "type": "address"
        },
        {
          "indexed": false,
          "internalType": "bool",
          "name": "approved",
          "type": "bool"
        }
      ],
      "name": "ApprovalForAll",
      "type": "event"
    },
    {
      "anonymous": false,
      "inputs": [
        {
          "indexed": true,
          "internalType": "address",
          "name": "previousOwner",
          "type": "address"
        },
        {
          "indexed": true,
          "internalType": "address",
          "name": "newOwner",
          "type": "address"
        }
      ],
      "name": "OwnershipTransferred",
      "type": "event"
    },
    {
      "anonymous": false,
      "inputs": [
        {
          "indexed": true,
          "internalType": "address",
          "name": "from",
          "type": "address"
        },
        {
          "indexed": true,
          "internalType": "address",
          "name": "to",
          "type": "address"
        },
        {
          "indexed": true,
          "internalType": "uint256",
          "name": "tokenId",
          "type": "uint256"
        }
      ],
      "name": "Transfer",
      "type": "event"
    },
    {
      "inputs": [
        {
          "internalType": "address",
          "name": "to",
          "type": "address"
        },
        {
          "internalType": "uint256",
          "name": "tokenId",
          "type": "uint256"
        }
      ],
      "name": "approve",
      "outputs": [],
      "stateMutability": "nonpayable",
      "type": "function"
    },
    {
      "inputs": [
        {
          "internalType": "address",
          "name": "owner",
          "type": "address"
        }
      ],
      "name": "balanceOf",
      "outputs": [
        {
          "internalType": "uint256",
          "name": "",
          "type": "uint256"
        }
      ],
      "stateMutability": "view",
      "type": "function",
      "constant": true
    },
    {
      "inputs": [
        {
          "internalType": "uint256",
          "name": "tokenId",
          "type": "uint256"
        }
      ],
      "name": "getApproved",
      "outputs": [
        {
          "internalType": "address",
          "name": "",
          "type": "address"
        }
      ],
      "stateMutability": "view",
      "type": "function",
      "constant": true
    },
    {
      "inputs": [
        {
          "internalType": "address",
          "name": "owner",
          "type": "address"
        },
        {
          "internalType": "address",
          "name": "operator",
          "type": "address"
        }
      ],
      "name": "isApprovedForAll",
      "outputs": [
        {
          "internalType": "bool",
          "name": "",
          "type": "bool"
        }
      ],
      "stateMutability": "view",
      "type": "function",
      "constant": true
    },
    {
      "inputs": [],
      "name": "name",
      "outputs": [
        {
          "internalType": "string",
          "name": "",
          "type": "string"
        }
      ],
      "stateMutability": "view",
      "type": "function",
      "constant": true
    },
    {
      "inputs": [],
      "name": "owner",
      "outputs": [
        {
          "internalType": "address",
          "name": "",
          "type": "address"
        }
      ],
      "stateMutability": "view",
      "type": "function",
      "constant": true
    },
    {
      "inputs": [
        {
          "internalType": "uint256",
          "name": "tokenId",
          "type": "uint256"
        }
      ],
      "name": "ownerOf",
      "outputs": [
        {
          "internalType": "address",
          "name": "",
          "type": "address"
        }
      ],
      "stateMutability": "view",
      "type": "function",
      "constant": true
    },
    {
      "inputs": [],
      "name": "renounceOwnership",
      "outputs": [],
      "stateMutability": "nonpayable",
      "type": "function"
    },
    {
      "inputs": [
        {
          "internalType": "address",
          "name": "from",
          "type": "address"
        },
        {
          "internalType": "address",
          "name": "to",
          "type": "address"
        },
        {
          "internalType": "uint256",
          "name": "tokenId",
          "type": "uint256"
        }
      ],
      "name": "safeTransferFrom",
      "outputs": [],
      "stateMutability": "nonpayable",
      "type": "function"
    },
    {
      "inputs": [
        {
          "internalType": "address",
          "name": "from",
          "type": "address"
        },
        {
          "internalType": "address",
          "name": "to",
          "type": "address"
        },
        {
          "internalType": "uint256",
          "name": "tokenId",
          "type": "uint256"
        },
        {
          "internalType": "bytes",
          "name": "_data",
          "type": "bytes"
        }
      ],
      "name": "safeTransferFrom",
      "outputs": [],
      "stateMutability": "nonpayable",
      "type": "function"
    },
    {
      "inputs": [
        {
          "internalType": "address",
          "name": "operator",
          "type": "address"
        },
        {
          "internalType": "bool",
          "name": "approved",
          "type": "bool"
        }
      ],
      "name": "setApprovalForAll",
      "outputs": [],
      "stateMutability": "nonpayable",
      "type": "function"
    },
    {
      "inputs": [
        {
          "internalType": "bytes4",
          "name": "interfaceId",
          "type": "bytes4"
        }
      ],
      "name": "supportsInterface",
      "outputs": [
        {
          "internalType": "bool",
          "name": "",
          "type": "bool"
        }
      ],
      "stateMutability": "view",
      "type": "function",
      "constant": true
    },
    {
      "inputs": [],
      "name": "symbol",
      "outputs": [
        {
          "internalType": "string",
          "name": "",
          "type": "string"
        }
      ],
      "stateMutability": "view",
      "type": "function",
      "constant": true
    },
    {
      "inputs": [
        {
          "internalType": "address",
          "name": "from",
          "type": "address"
        },
        {
          "internalType": "address",
          "name": "to",
          "type": "address"
        },
        {
          "internalType": "uint256",
          "name": "tokenId",
          "type": "uint256"
        }
      ],
      "name": "transferFrom",
      "outputs": [],
      "stateMutability": "nonpayable",
      "type": "function"
    },
    {
      "inputs": [
        {
          "internalType": "address",
          "name": "newOwner",
          "type": "address"
        }
      ],
      "name": "transferOwnership",
      "outputs": [],
      "stateMutability": "nonpayable",
      "type": "function"
    },
    {
      "inputs": [
        {
          "internalType": "uint256",
          "name": "tokenId",
          "type": "uint256"
        }
      ],
      "name": "tokenURI",
      "outputs": [
        {
          "internalType": "string",
          "name": "",
          "type": "string"
        }
      ],
      "stateMutability": "view",
      "type": "function",
      "constant": true
    },
    {
      "inputs": [],
      "name": "getAllTokens",
      "outputs": [
        {
          "components": [
            {
              "internalType": "uint256",
              "name": "id",
              "type": "uint256"
            },
            {
              "internalType": "string",
              "name": "uri",
              "type": "string"
            }
          ],
          "internalType": "struct NftMinter.RenderToken[]",
          "name": "",
          "type": "tuple[]"
        }
      ],
      "stateMutability": "view",
      "type": "function",
      "constant": true
    },
    {
      "inputs": [
        {
          "internalType": "address",
          "name": "recipient",
          "type": "address"
        },
        {
          "internalType": "string[]",
          "name": "uris",
          "type": "string[]"
        }
      ],
      "name": "mint",
      "outputs": [
        {
          "internalType": "uint256",
          "name": "",
          "type": "uint256"
        }
      ],
      "stateMutability": "nonpayable",
      "type": "function"
    }
  ],
  "bytecode": "0x60806040523480156200001157600080fd5b506040518060400160405280600481526020017f54657374000000000000000000000000000000000000000000000000000000008152506040518060400160405280600281526020017f5453000000000000000000000000000000000000000000000000000000000000815250816000908051906020019062000096929190620001a6565b508060019080519060200190620000af929190620001a6565b505050620000d2620000c6620000d860201b60201c565b620000e060201b60201c565b620002bb565b600033905090565b6000600660009054906101000a900473ffffffffffffffffffffffffffffffffffffffff16905081600660006101000a81548173ffffffffffffffffffffffffffffffffffffffff021916908373ffffffffffffffffffffffffffffffffffffffff1602179055508173ffffffffffffffffffffffffffffffffffffffff168173ffffffffffffffffffffffffffffffffffffffff167f8be0079c531659141344cd1fd0a4f28419497f9722a3daafe3b4186f6b6457e060405160405180910390a35050565b828054620001b49062000285565b90600052602060002090601f016020900481019282620001d8576000855562000224565b82601f10620001f357805160ff191683800117855562000224565b8280016001018555821562000224579182015b828111156200022357825182559160200191906001019062000206565b5b50905062000233919062000237565b5090565b5b808211156200025257600081600090555060010162000238565b5090565b7f4e487b7100000000000000000000000000000000000000000000000000000000600052602260045260246000fd5b600060028204905060018216806200029e57607f821691505b60208210811415620002b557620002b462000256565b5b50919050565b612d9180620002cb6000396000f3fe608060405234801561001057600080fd5b50600436106101165760003560e01c8063715018a6116100a2578063b88d4fde11610071578063b88d4fde146102cd578063c87b56dd146102e9578063d90794cf14610319578063e985e9c514610349578063f2fde38b1461037957610116565b8063715018a61461026b5780638da5cb5b1461027557806395d89b4114610293578063a22cb465146102b157610116565b806323b872dd116100e957806323b872dd146101b55780632a5c792a146101d157806342842e0e146101ef5780636352211e1461020b57806370a082311461023b57610116565b806301ffc9a71461011b57806306fdde031461014b578063081812fc14610169578063095ea7b314610199575b600080fd5b61013560048036038101906101309190611a3c565b610395565b6040516101429190611a84565b60405180910390f35b610153610477565b6040516101609190611b38565b60405180910390f35b610183600480360381019061017e9190611b90565b610509565b6040516101909190611bfe565b60405180910390f35b6101b360048036038101906101ae9190611c45565b61058e565b005b6101cf60048036038101906101ca9190611c85565b6106a6565b005b6101d9610706565b6040516101e69190611e30565b60405180910390f35b61020960048036038101906102049190611c85565b6107f5565b005b61022560048036038101906102209190611b90565b610815565b6040516102329190611bfe565b60405180910390f35b61025560048036038101906102509190611e52565b6108c7565b6040516102629190611e8e565b60405180910390f35b61027361097f565b005b61027d610a07565b60405161028a9190611bfe565b60405180910390f35b61029b610a31565b6040516102a89190611b38565b60405180910390f35b6102cb60048036038101906102c69190611ed5565b610ac3565b005b6102e760048036038101906102e2919061204a565b610ad9565b005b61030360048036038101906102fe9190611b90565b610b3b565b6040516103109190611b38565b60405180910390f35b610333600480360381019061032e9190612254565b610bf8565b6040516103409190611e8e565b60405180910390f35b610363600480360381019061035e91906122b0565b610c69565b6040516103709190611a84565b60405180910390f35b610393600480360381019061038e9190611e52565b610cfd565b005b60007f80ac58cd000000000000000000000000000000000000000000000000000000007bffffffffffffffffffffffffffffffffffffffffffffffffffffffff1916827bffffffffffffffffffffffffffffffffffffffffffffffffffffffff1916148061046057507f5b5e139f000000000000000000000000000000000000000000000000000000007bffffffffffffffffffffffffffffffffffffffffffffffffffffffff1916827bffffffffffffffffffffffffffffffffffffffffffffffffffffffff1916145b80610470575061046f82610df5565b5b9050919050565b6060600080546104869061231f565b80601f01602080910402602001604051908101604052809291908181526020018280546104b29061231f565b80156104ff5780601f106104d4576101008083540402835291602001916104ff565b820191906000526020600020905b8154815290600101906020018083116104e257829003601f168201915b5050505050905090565b600061051482610e5f565b610553576040517f08c379a000000000000000000000000000000000000000000000000000000000815260040161054a906123c3565b60405180910390fd5b6004600083815260200190815260200160002060009054906101000a900473ffffffffffffffffffffffffffffffffffffffff169050919050565b600061059982610815565b90508073ffffffffffffffffffffffffffffffffffffffff168373ffffffffffffffffffffffffffffffffffffffff16141561060a576040517f08c379a000000000000000000000000000000000000000000000000000000000815260040161060190612455565b60405180910390fd5b8073ffffffffffffffffffffffffffffffffffffffff16610629610ecb565b73ffffffffffffffffffffffffffffffffffffffff161480610658575061065781610652610ecb565b610c69565b5b610697576040517f08c379a000000000000000000000000000000000000000000000000000000000815260040161068e906124e7565b60405180910390fd5b6106a18383610ed3565b505050565b6106b76106b1610ecb565b82610f8c565b6106f6576040517f08c379a00000000000000000000000000000000000000000000000000000000081526004016106ed90612579565b60405180910390fd5b61070183838361106a565b505050565b6060600061071460076112c6565b90506000808267ffffffffffffffff81111561073357610732611f1f565b5b60405190808252806020026020018201604052801561076c57816020015b610759611913565b8152602001906001900390816107515790505b50905060005b838110156107eb5761078383610e5f565b156107ca57600061079384610b3b565b90506040518060400160405280858152602001828152508385815181106107bd576107bc612599565b5b6020026020010181905250505b82806107d5906125f7565b93505080806107e3906125f7565b915050610772565b5080935050505090565b61081083838360405180602001604052806000815250610ad9565b505050565b6000806002600084815260200190815260200160002060009054906101000a900473ffffffffffffffffffffffffffffffffffffffff169050600073ffffffffffffffffffffffffffffffffffffffff168173ffffffffffffffffffffffffffffffffffffffff1614156108be576040517f08c379a00000000000000000000000000000000000000000000000000000000081526004016108b5906126b2565b60405180910390fd5b80915050919050565b60008073ffffffffffffffffffffffffffffffffffffffff168273ffffffffffffffffffffffffffffffffffffffff161415610938576040517f08c379a000000000000000000000000000000000000000000000000000000000815260040161092f90612744565b60405180910390fd5b600360008373ffffffffffffffffffffffffffffffffffffffff1673ffffffffffffffffffffffffffffffffffffffff168152602001908152602001600020549050919050565b610987610ecb565b73ffffffffffffffffffffffffffffffffffffffff166109a5610a07565b73ffffffffffffffffffffffffffffffffffffffff16146109fb576040517f08c379a00000000000000000000000000000000000000000000000000000000081526004016109f2906127b0565b60405180910390fd5b610a0560006112d4565b565b6000600660009054906101000a900473ffffffffffffffffffffffffffffffffffffffff16905090565b606060018054610a409061231f565b80601f0160208091040260200160405190810160405280929190818152602001828054610a6c9061231f565b8015610ab95780601f10610a8e57610100808354040283529160200191610ab9565b820191906000526020600020905b815481529060010190602001808311610a9c57829003601f168201915b5050505050905090565b610ad5610ace610ecb565b838361139a565b5050565b610aea610ae4610ecb565b83610f8c565b610b29576040517f08c379a0000000000000000000000000000000000000000000000000000000008152600401610b2090612579565b60405180910390fd5b610b3584848484611507565b50505050565b6060610b4682610e5f565b610b4f57600080fd5b6000600860008481526020019081526020016000208054610b6f9061231f565b80601f0160208091040260200160405190810160405280929190818152602001828054610b9b9061231f565b8015610be85780601f10610bbd57610100808354040283529160200191610be8565b820191906000526020600020905b815481529060010190602001808311610bcb57829003601f168201915b5050505050905080915050919050565b60008060005b8351811015610c5e57610c1160076112c6565b9150610c1d3383611563565b610c4182858381518110610c3457610c33612599565b5b6020026020010151611731565b610c4b600761175d565b8080610c56906125f7565b915050610bfe565b508091505092915050565b6000600560008473ffffffffffffffffffffffffffffffffffffffff1673ffffffffffffffffffffffffffffffffffffffff16815260200190815260200160002060008373ffffffffffffffffffffffffffffffffffffffff1673ffffffffffffffffffffffffffffffffffffffff16815260200190815260200160002060009054906101000a900460ff16905092915050565b610d05610ecb565b73ffffffffffffffffffffffffffffffffffffffff16610d23610a07565b73ffffffffffffffffffffffffffffffffffffffff1614610d79576040517f08c379a0000000000000000000000000000000000000000000000000000000008152600401610d70906127b0565b60405180910390fd5b600073ffffffffffffffffffffffffffffffffffffffff168173ffffffffffffffffffffffffffffffffffffffff161415610de9576040517f08c379a0000000000000000000000000000000000000000000000000000000008152600401610de090612842565b60405180910390fd5b610df2816112d4565b50565b60007f01ffc9a7000000000000000000000000000000000000000000000000000000007bffffffffffffffffffffffffffffffffffffffffffffffffffffffff1916827bffffffffffffffffffffffffffffffffffffffffffffffffffffffff1916149050919050565b60008073ffffffffffffffffffffffffffffffffffffffff166002600084815260200190815260200160002060009054906101000a900473ffffffffffffffffffffffffffffffffffffffff1673ffffffffffffffffffffffffffffffffffffffff1614159050919050565b600033905090565b816004600083815260200190815260200160002060006101000a81548173ffffffffffffffffffffffffffffffffffffffff021916908373ffffffffffffffffffffffffffffffffffffffff160217905550808273ffffffffffffffffffffffffffffffffffffffff16610f4683610815565b73ffffffffffffffffffffffffffffffffffffffff167f8c5be1e5ebec7d5bd14f71427d1e84f3dd0314c0f7b2291e5b200ac8c7c3b92560405160405180910390a45050565b6000610f9782610e5f565b610fd6576040517f08c379a0000000000000000000000000000000000000000000000000000000008152600401610fcd906128d4565b60405180910390fd5b6000610fe183610815565b90508073ffffffffffffffffffffffffffffffffffffffff168473ffffffffffffffffffffffffffffffffffffffff16148061105057508373ffffffffffffffffffffffffffffffffffffffff1661103884610509565b73ffffffffffffffffffffffffffffffffffffffff16145b8061106157506110608185610c69565b5b91505092915050565b8273ffffffffffffffffffffffffffffffffffffffff1661108a82610815565b73ffffffffffffffffffffffffffffffffffffffff16146110e0576040517f08c379a00000000000000000000000000000000000000000000000000000000081526004016110d790612966565b60405180910390fd5b600073ffffffffffffffffffffffffffffffffffffffff168273ffffffffffffffffffffffffffffffffffffffff161415611150576040517f08c379a0000000000000000000000000000000000000000000000000000000008152600401611147906129f8565b60405180910390fd5b61115b838383611773565b611166600082610ed3565b6001600360008573ffffffffffffffffffffffffffffffffffffffff1673ffffffffffffffffffffffffffffffffffffffff16815260200190815260200160002060008282546111b69190612a18565b925050819055506001600360008473ffffffffffffffffffffffffffffffffffffffff1673ffffffffffffffffffffffffffffffffffffffff168152602001908152602001600020600082825461120d9190612a4c565b92505081905550816002600083815260200190815260200160002060006101000a81548173ffffffffffffffffffffffffffffffffffffffff021916908373ffffffffffffffffffffffffffffffffffffffff160217905550808273ffffffffffffffffffffffffffffffffffffffff168473ffffffffffffffffffffffffffffffffffffffff167fddf252ad1be2c89b69c2b068fc378daa952ba7f163c4a11628f55a4df523b3ef60405160405180910390a4505050565b600081600001549050919050565b6000600660009054906101000a900473ffffffffffffffffffffffffffffffffffffffff16905081600660006101000a81548173ffffffffffffffffffffffffffffffffffffffff021916908373ffffffffffffffffffffffffffffffffffffffff1602179055508173ffffffffffffffffffffffffffffffffffffffff168173ffffffffffffffffffffffffffffffffffffffff167f8be0079c531659141344cd1fd0a4f28419497f9722a3daafe3b4186f6b6457e060405160405180910390a35050565b8173ffffffffffffffffffffffffffffffffffffffff168373ffffffffffffffffffffffffffffffffffffffff161415611409576040517f08c379a000000000000000000000000000000000000000000000000000000000815260040161140090612aee565b60405180910390fd5b80600560008573ffffffffffffffffffffffffffffffffffffffff1673ffffffffffffffffffffffffffffffffffffffff16815260200190815260200160002060008473ffffffffffffffffffffffffffffffffffffffff1673ffffffffffffffffffffffffffffffffffffffff16815260200190815260200160002060006101000a81548160ff0219169083151502179055508173ffffffffffffffffffffffffffffffffffffffff168373ffffffffffffffffffffffffffffffffffffffff167f17307eab39ab6107e8899845ad3d59bd9653f200f220920489ca2b5937696c31836040516114fa9190611a84565b60405180910390a3505050565b61151284848461106a565b61151e84848484611778565b61155d576040517f08c379a000000000000000000000000000000000000000000000000000000000815260040161155490612b80565b60405180910390fd5b50505050565b600073ffffffffffffffffffffffffffffffffffffffff168273ffffffffffffffffffffffffffffffffffffffff1614156115d3576040517f08c379a00000000000000000000000000000000000000000000000000000000081526004016115ca90612bec565b60405180910390fd5b6115dc81610e5f565b1561161c576040517f08c379a000000000000000000000000000000000000000000000000000000000815260040161161390612c58565b60405180910390fd5b61162860008383611773565b6001600360008473ffffffffffffffffffffffffffffffffffffffff1673ffffffffffffffffffffffffffffffffffffffff16815260200190815260200160002060008282546116789190612a4c565b92505081905550816002600083815260200190815260200160002060006101000a81548173ffffffffffffffffffffffffffffffffffffffff021916908373ffffffffffffffffffffffffffffffffffffffff160217905550808273ffffffffffffffffffffffffffffffffffffffff16600073ffffffffffffffffffffffffffffffffffffffff167fddf252ad1be2c89b69c2b068fc378daa952ba7f163c4a11628f55a4df523b3ef60405160405180910390a45050565b8060086000848152602001908152602001600020908051906020019061175892919061192d565b505050565b6001816000016000828254019250508190555050565b505050565b60006117998473ffffffffffffffffffffffffffffffffffffffff16611900565b156118f3578373ffffffffffffffffffffffffffffffffffffffff1663150b7a026117c2610ecb565b8786866040518563ffffffff1660e01b81526004016117e49493929190612ccd565b6020604051808303816000875af192505050801561182057506040513d601f19601f8201168201806040525081019061181d9190612d2e565b60015b6118a3573d8060008114611850576040519150601f19603f3d011682016040523d82523d6000602084013e611855565b606091505b5060008151141561189b576040517f08c379a000000000000000000000000000000000000000000000000000000000815260040161189290612b80565b60405180910390fd5b805181602001fd5b63150b7a0260e01b7bffffffffffffffffffffffffffffffffffffffffffffffffffffffff1916817bffffffffffffffffffffffffffffffffffffffffffffffffffffffff1916149150506118f8565b600190505b949350505050565b600080823b905060008111915050919050565b604051806040016040528060008152602001606081525090565b8280546119399061231f565b90600052602060002090601f01602090048101928261195b57600085556119a2565b82601f1061197457805160ff19168380011785556119a2565b828001600101855582156119a2579182015b828111156119a1578251825591602001919060010190611986565b5b5090506119af91906119b3565b5090565b5b808211156119cc5760008160009055506001016119b4565b5090565b6000604051905090565b600080fd5b600080fd5b60007fffffffff0000000000000000000000000000000000000000000000000000000082169050919050565b611a19816119e4565b8114611a2457600080fd5b50565b600081359050611a3681611a10565b92915050565b600060208284031215611a5257611a516119da565b5b6000611a6084828501611a27565b91505092915050565b60008115159050919050565b611a7e81611a69565b82525050565b6000602082019050611a996000830184611a75565b92915050565b600081519050919050565b600082825260208201905092915050565b60005b83811015611ad9578082015181840152602081019050611abe565b83811115611ae8576000848401525b50505050565b6000601f19601f8301169050919050565b6000611b0a82611a9f565b611b148185611aaa565b9350611b24818560208601611abb565b611b2d81611aee565b840191505092915050565b60006020820190508181036000830152611b528184611aff565b905092915050565b6000819050919050565b611b6d81611b5a565b8114611b7857600080fd5b50565b600081359050611b8a81611b64565b92915050565b600060208284031215611ba657611ba56119da565b5b6000611bb484828501611b7b565b91505092915050565b600073ffffffffffffffffffffffffffffffffffffffff82169050919050565b6000611be882611bbd565b9050919050565b611bf881611bdd565b82525050565b6000602082019050611c136000830184611bef565b92915050565b611c2281611bdd565b8114611c2d57600080fd5b50565b600081359050611c3f81611c19565b92915050565b60008060408385031215611c5c57611c5b6119da565b5b6000611c6a85828601611c30565b9250506020611c7b85828601611b7b565b9150509250929050565b600080600060608486031215611c9e57611c9d6119da565b5b6000611cac86828701611c30565b9350506020611cbd86828701611c30565b9250506040611cce86828701611b7b565b9150509250925092565b600081519050919050565b600082825260208201905092915050565b6000819050602082019050919050565b611d0d81611b5a565b82525050565b600082825260208201905092915050565b6000611d2f82611a9f565b611d398185611d13565b9350611d49818560208601611abb565b611d5281611aee565b840191505092915050565b6000604083016000830151611d756000860182611d04565b5060208301518482036020860152611d8d8282611d24565b9150508091505092915050565b6000611da68383611d5d565b905092915050565b6000602082019050919050565b6000611dc682611cd8565b611dd08185611ce3565b935083602082028501611de285611cf4565b8060005b85811015611e1e5784840389528151611dff8582611d9a565b9450611e0a83611dae565b925060208a01995050600181019050611de6565b50829750879550505050505092915050565b60006020820190508181036000830152611e4a8184611dbb565b905092915050565b600060208284031215611e6857611e676119da565b5b6000611e7684828501611c30565b91505092915050565b611e8881611b5a565b82525050565b6000602082019050611ea36000830184611e7f565b92915050565b611eb281611a69565b8114611ebd57600080fd5b50565b600081359050611ecf81611ea9565b92915050565b60008060408385031215611eec57611eeb6119da565b5b6000611efa85828601611c30565b9250506020611f0b85828601611ec0565b9150509250929050565b600080fd5b600080fd5b7f4e487b7100000000000000000000000000000000000000000000000000000000600052604160045260246000fd5b611f5782611aee565b810181811067ffffffffffffffff82111715611f7657611f75611f1f565b5b80604052505050565b6000611f896119d0565b9050611f958282611f4e565b919050565b600067ffffffffffffffff821115611fb557611fb4611f1f565b5b611fbe82611aee565b9050602081019050919050565b82818337600083830152505050565b6000611fed611fe884611f9a565b611f7f565b90508281526020810184848401111561200957612008611f1a565b5b612014848285611fcb565b509392505050565b600082601f83011261203157612030611f15565b5b8135612041848260208601611fda565b91505092915050565b60008060008060808587031215612064576120636119da565b5b600061207287828801611c30565b945050602061208387828801611c30565b935050604061209487828801611b7b565b925050606085013567ffffffffffffffff8111156120b5576120b46119df565b5b6120c18782880161201c565b91505092959194509250565b600067ffffffffffffffff8211156120e8576120e7611f1f565b5b602082029050602081019050919050565b600080fd5b600067ffffffffffffffff82111561211957612118611f1f565b5b61212282611aee565b9050602081019050919050565b600061214261213d846120fe565b611f7f565b90508281526020810184848401111561215e5761215d611f1a565b5b612169848285611fcb565b509392505050565b600082601f83011261218657612185611f15565b5b813561219684826020860161212f565b91505092915050565b60006121b26121ad846120cd565b611f7f565b905080838252602082019050602084028301858111156121d5576121d46120f9565b5b835b8181101561221c57803567ffffffffffffffff8111156121fa576121f9611f15565b5b8086016122078982612171565b855260208501945050506020810190506121d7565b5050509392505050565b600082601f83011261223b5761223a611f15565b5b813561224b84826020860161219f565b91505092915050565b6000806040838503121561226b5761226a6119da565b5b600061227985828601611c30565b925050602083013567ffffffffffffffff81111561229a576122996119df565b5b6122a685828601612226565b9150509250929050565b600080604083850312156122c7576122c66119da565b5b60006122d585828601611c30565b92505060206122e685828601611c30565b9150509250929050565b7f4e487b7100000000000000000000000000000000000000000000000000000000600052602260045260246000fd5b6000600282049050600182168061233757607f821691505b6020821081141561234b5761234a6122f0565b5b50919050565b7f4552433732313a20617070726f76656420717565727920666f72206e6f6e657860008201527f697374656e7420746f6b656e0000000000000000000000000000000000000000602082015250565b60006123ad602c83611aaa565b91506123b882612351565b604082019050919050565b600060208201905081810360008301526123dc816123a0565b9050919050565b7f4552433732313a20617070726f76616c20746f2063757272656e74206f776e6560008201527f7200000000000000000000000000000000000000000000000000000000000000602082015250565b600061243f602183611aaa565b915061244a826123e3565b604082019050919050565b6000602082019050818103600083015261246e81612432565b9050919050565b7f4552433732313a20617070726f76652063616c6c6572206973206e6f74206f7760008201527f6e6572206e6f7220617070726f76656420666f7220616c6c0000000000000000602082015250565b60006124d1603883611aaa565b91506124dc82612475565b604082019050919050565b60006020820190508181036000830152612500816124c4565b9050919050565b7f4552433732313a207472616e736665722063616c6c6572206973206e6f74206f60008201527f776e6572206e6f7220617070726f766564000000000000000000000000000000602082015250565b6000612563603183611aaa565b915061256e82612507565b604082019050919050565b6000602082019050818103600083015261259281612556565b9050919050565b7f4e487b7100000000000000000000000000000000000000000000000000000000600052603260045260246000fd5b7f4e487b7100000000000000000000000000000000000000000000000000000000600052601160045260246000fd5b600061260282611b5a565b91507fffffffffffffffffffffffffffffffffffffffffffffffffffffffffffffffff821415612635576126346125c8565b5b600182019050919050565b7f4552433732313a206f776e657220717565727920666f72206e6f6e657869737460008201527f656e7420746f6b656e0000000000000000000000000000000000000000000000602082015250565b600061269c602983611aaa565b91506126a782612640565b604082019050919050565b600060208201905081810360008301526126cb8161268f565b9050919050565b7f4552433732313a2062616c616e636520717565727920666f7220746865207a6560008201527f726f206164647265737300000000000000000000000000000000000000000000602082015250565b600061272e602a83611aaa565b9150612739826126d2565b604082019050919050565b6000602082019050818103600083015261275d81612721565b9050919050565b7f4f776e61626c653a2063616c6c6572206973206e6f7420746865206f776e6572600082015250565b600061279a602083611aaa565b91506127a582612764565b602082019050919050565b600060208201905081810360008301526127c98161278d565b9050919050565b7f4f776e61626c653a206e6577206f776e657220697320746865207a65726f206160008201527f6464726573730000000000000000000000000000000000000000000000000000602082015250565b600061282c602683611aaa565b9150612837826127d0565b604082019050919050565b6000602082019050818103600083015261285b8161281f565b9050919050565b7f4552433732313a206f70657261746f7220717565727920666f72206e6f6e657860008201527f697374656e7420746f6b656e0000000000000000000000000000000000000000602082015250565b60006128be602c83611aaa565b91506128c982612862565b604082019050919050565b600060208201905081810360008301526128ed816128b1565b9050919050565b7f4552433732313a207472616e73666572206f6620746f6b656e2074686174206960008201527f73206e6f74206f776e0000000000000000000000000000000000000000000000602082015250565b6000612950602983611aaa565b915061295b826128f4565b604082019050919050565b6000602082019050818103600083015261297f81612943565b9050919050565b7f4552433732313a207472616e7366657220746f20746865207a65726f2061646460008201527f7265737300000000000000000000000000000000000000000000000000000000602082015250565b60006129e2602483611aaa565b91506129ed82612986565b604082019050919050565b60006020820190508181036000830152612a11816129d5565b9050919050565b6000612a2382611b5a565b9150612a2e83611b5a565b925082821015612a4157612a406125c8565b5b828203905092915050565b6000612a5782611b5a565b9150612a6283611b5a565b9250827fffffffffffffffffffffffffffffffffffffffffffffffffffffffffffffffff03821115612a9757612a966125c8565b5b828201905092915050565b7f4552433732313a20617070726f766520746f2063616c6c657200000000000000600082015250565b6000612ad8601983611aaa565b9150612ae382612aa2565b602082019050919050565b60006020820190508181036000830152612b0781612acb565b9050919050565b7f4552433732313a207472616e7366657220746f206e6f6e20455243373231526560008201527f63656976657220696d706c656d656e7465720000000000000000000000000000602082015250565b6000612b6a603283611aaa565b9150612b7582612b0e565b604082019050919050565b60006020820190508181036000830152612b9981612b5d565b9050919050565b7f4552433732313a206d696e7420746f20746865207a65726f2061646472657373600082015250565b6000612bd6602083611aaa565b9150612be182612ba0565b602082019050919050565b60006020820190508181036000830152612c0581612bc9565b9050919050565b7f4552433732313a20746f6b656e20616c7265616479206d696e74656400000000600082015250565b6000612c42601c83611aaa565b9150612c4d82612c0c565b602082019050919050565b60006020820190508181036000830152612c7181612c35565b9050919050565b600081519050919050565b600082825260208201905092915050565b6000612c9f82612c78565b612ca98185612c83565b9350612cb9818560208601611abb565b612cc281611aee565b840191505092915050565b6000608082019050612ce26000830187611bef565b612cef6020830186611bef565b612cfc6040830185611e7f565b8181036060830152612d0e8184612c94565b905095945050505050565b600081519050612d2881611a10565b92915050565b600060208284031215612d4457612d436119da565b5b6000612d5284828501612d19565b9150509291505056fea2646970667358221220a8cf5699b79922c18dfd8e4cbea8cb0e973af3e5574d88c2708b80abfe4344bf64736f6c634300080a0033",
  "immutableReferences": {},
  "source": "pragma solidity ^0.8.0;\r\n\r\nimport \"@openzeppelin/contracts/token/ERC721/ERC721.sol\";\r\nimport \"@openzeppelin/contracts/utils/Counters.sol\";\r\nimport \"@openzeppelin/contracts/access/Ownable.sol\";\r\n\r\ncontract NftMinter is ERC721, Ownable {\r\n    using Counters for Counters.Counter;\r\n    using Strings for uint256;\r\n    Counters.Counter _tokenIds;\r\n    mapping(uint256 => string) _tokenURIs;\r\n\r\n    struct RenderToken{\r\n      uint256 id;\r\n      string uri;\r\n    }\r\n\r\n\r\n  constructor() ERC721(\"Test\", \"TS\") {}\r\n\r\n  function _setTokenURI(uint256 tokenId, string memory _tokenURI) internal {\r\n    _tokenURIs[tokenId] = _tokenURI;\r\n\r\n  }\r\n\r\n  function tokenURI(uint256 tokenId) public view virtual override returns(string memory){\r\n    require(_exists(tokenId));\r\n    string memory _tokenURI =_tokenURIs[tokenId];\r\n    return _tokenURI;\r\n  }\r\n\r\n  function getAllTokens() public view returns(RenderToken[] memory) {\r\n    uint256 latestId = _tokenIds.current();\r\n    uint256 counter = 0;\r\n    RenderToken[] memory result = new RenderToken[](latestId); // latest id is the maximum size of the current tokens.\r\n    for(uint256 i = 0; i < latestId; i++){\r\n      if(_exists(counter)){\r\n        string memory uri = tokenURI(counter);\r\n        result[counter] = RenderToken(counter, uri);\r\n      }\r\n      counter++;\r\n    }\r\n    return result;\r\n  }\r\n\r\n\r\n  function mint(address recipient, string[] memory uris) public returns(uint256) {\r\n    uint256 newId;\r\n    for (uint256 i = 0; i < uris.length; i ++) {\r\n      newId = _tokenIds.current();\r\n      _mint(msg.sender, newId);\r\n      _setTokenURI(newId, uris[i]);\r\n      _tokenIds.increment();\r\n    }\r\n    return newId;\r\n  }\r\n}",
  "sourcePath": "E:\\DApps\\truffle_repo\\contracts\\NFT.sol",
  "compiler": {
    "name": "solc",
    "version": "0.8.10+commit.fc410830.Emscripten.clang"
  },
  "schemaVersion": "3.4.4",
  "updatedAt": "2022-01-04T10:15:32.728Z",
  "networkType": "ethereum",
  "devdoc": {
    "kind": "dev",
    "methods": {
      "approve(address,uint256)": {
        "details": "See {IERC721-approve}."
      },
      "balanceOf(address)": {
        "details": "See {IERC721-balanceOf}."
      },
      "getApproved(uint256)": {
        "details": "See {IERC721-getApproved}."
      },
      "isApprovedForAll(address,address)": {
        "details": "See {IERC721-isApprovedForAll}."
      },
      "name()": {
        "details": "See {IERC721Metadata-name}."
      },
      "owner()": {
        "details": "Returns the address of the current owner."
      },
      "ownerOf(uint256)": {
        "details": "See {IERC721-ownerOf}."
      },
      "renounceOwnership()": {
        "details": "Leaves the contract without owner. It will not be possible to call `onlyOwner` functions anymore. Can only be called by the current owner. NOTE: Renouncing ownership will leave the contract without an owner, thereby removing any functionality that is only available to the owner."
      },
      "safeTransferFrom(address,address,uint256)": {
        "details": "See {IERC721-safeTransferFrom}."
      },
      "safeTransferFrom(address,address,uint256,bytes)": {
        "details": "See {IERC721-safeTransferFrom}."
      },
      "setApprovalForAll(address,bool)": {
        "details": "See {IERC721-setApprovalForAll}."
      },
      "supportsInterface(bytes4)": {
        "details": "See {IERC165-supportsInterface}."
      },
      "symbol()": {
        "details": "See {IERC721Metadata-symbol}."
      },
      "tokenURI(uint256)": {
        "details": "See {IERC721Metadata-tokenURI}."
      },
      "transferFrom(address,address,uint256)": {
        "details": "See {IERC721-transferFrom}."
      },
      "transferOwnership(address)": {
        "details": "Transfers ownership of the contract to a new account (`newOwner`). Can only be called by the current owner."
      }
    },
    "version": 1
  },
  "userdoc": {
    "kind": "user",
    "methods": {},
    "version": 1
  }
}